S00D000041505F46572E737265638A
S11300000C94B6000C94D3000C94D3000C94D3003D
S11300100C94D3000C94D3000C94D3000C94D30010
S11300200C94D3000C94D3000C9472100C94D30051
S11300300C94D3000C94D3000C94D3000C94D300F0
S11300400C94D3000C94D3000C94D3000C94D300E0
S11300500C94D300BC0BBF0BC20BC50BC80BCB0B52
S1130060CE0B3F10411043104510471049104B1060
S11300704D1000407A10F35A00A0724E1809001077
S1130080A5D4E80000E87648170000E40B54020009
S113009000CA9A3B000000E1F50500008096980034
S11300A0000040420F000000A0860100000010275D
S11300B000000000E80300000000640000000000ED
S11300C00A00000000000100000000002C76D8881F
S11300D0DC674F0823DFC1DFAE59E1B1B796E5E332
S11300E0E453C63AE651997696E8E6C28426EB894B
S11300F08C9B62ED407C6FFCEFBC9C9F40F2BAA5E8
S11301006FA5F490055A2AF75C936B6CF9676DC17F
S11301101BFCE0E40D47FEF520E6B500D0ED902E83
S11301200300943577050080841E080000204E0AE1
S1130130000000C80C333333330F986E128311411F
S1130140EF8D2114893BE65516CFFEE6DB18D184EA
S11301504B381BF77C1D901DA4BBE4242032847211
S11301605E228100C9F124ECA1E53D2711241FBEC4
S1130170CFE5D8E0DEBFCDBF10E0A0E6B0E0EAEB0B
S1130180FBE202C005900D92AC3EB107D9F722E024
S1130190ACEEB0E001C01D92A93FB207E1F70E94A6
S11301A0A50E0C94DB150C940000C498962F9F7137
S11301B0892B8FB9779BFECF1FB8779BFECF67FD46
S11301C003C0C49A8FB108951FB8779BFECFF9CFAF
S11301D0C4986F71862B8FB9779BFECF4FB9779BED
S11301E0FECFC49A0895FB01C4982AE32FB9779BE4
S11301F0FECF8E0F9F1FE817F90731F01FB8779BCA
S1130200FECF2FB12193F7CF1082C49A0895C498DA
S11302102AE72FB9779BFECF860F971F68177907B8
S113022039F0FB012191BF012FB9779BFECFF6CFA7
S1130230C49A08951F93CF93DF93182F1076C12F7C
S1130240D0E02091EE0030E0C217D30789F043E0FC
S11302506FE180EA0E94E800AE0185E0559547957C
S11302608A95E1F76FE180E80E94E8001093EE00C0
S1130270DF91CF911F910895CF93DF931F92CDB754
S1130280DEB7682F69830E941A01698180E00F90AC
S1130290DF91CF910C94D5001F93CF93DF931F92DE
S11302A0CDB7DEB7182F69830E941A014981612FE7
S11302B080E40F90DF91CF911F910C94E8001F937D
S11302C0CF93DF931F92CDB7DEB7162F682F84ED3F
S11302D079830E944C01612F86ED0E944C01798143
S11302E0672F87ED0E944C0118E28AEE0E943C01C0
S11302F080FF04C0812F8A95F1F7F7CF0F90DF912B
S1130300CF911F910895CF93DF93EC01BC9AC49AC7
S113031087B3806A87BBBE9AC59AC79A80E58DB9B0
S1130320709A4FEF60E08FEF0E94E80080E090E069
S11303300197F1F71092ED001092EC0060E088E074
S11303400E944C0160E089E00E944C0160E08CE076
S11303500E944C0160E08DE00E944C016FEF8AE046
S11303600E944C0169E18BE00E944C0160E084E052
S11303700E944C016AE185E00E944C016FEF86E027
S11303800E944C016FE187E00E944C0160EB88E31E
S11303900E944C016FE388E20E944C0160E389E211
S11303A00E944C0169EF80E30E944C0167EF81E3F6
S11303B00E944C016DE080EC0E944C0160E081ECF5
S11303C00E944C0142E362EC80E80E94E80062E192
S11303D086EC0E944C016CE087EC0E944C0162E1C7
S11303E084EC0E944C016CED8AEC0E944C0165E0A7
S11303F08BEC0E944C01688184EE0E944C0169815F
S113040085EE0E944C016A8182EE0E944C016B8150
S113041083EE0E944C016C8180EE0E944C016D8140
S113042081EE0E944C0160E071E080E10E945F0176
S11304308FE10E941A0140EC6BE180E80E94E80021
S113044044E06FE180E8DF91CF910C94E8000F93D2
S11304501F93CF93DF93EC018B016FE180E00E9447
S1130460D50083FF10C08CE10E943C0181FFF5CFD1
S113047040E86FE180E80E94E80040E86FE180EA2C
S11304800E94E800EACF60E082E00E944C016AE149
S113049083E00E944C016C2F86E00E944C01CE0147
S11304A0965E692F87E00E944C0140E060E08AE795
S11304B00E94E800B801CE010E94070148E06FE104
S11304C080E8DF91CF911F910F910C94E8009F92E7
S11304D0AF92BF92CF92DF92EF92FF920F931F934E
S11304E0CF93DF936C017B0189E30E943C01882355
S11304F009F45BC06091EC00C091ED0080E00E94C3
S11305004C016C2F81E00E944C0160E08AE30E9460
S1130510D500082F60E08AE30E94D50010E0182B74
S11305201093ED000093EC0060E08AE30E94D50094
S1130530C82F60E08AE30E94D500982E60E08AE329
S11305400E94D500A82E60E08AE30E94D500A7FE91
S11305500FC0960121503109D0E0D92924972C17D6
S11305603D0708F4E901B701CE010E94F30002C07F
S1130570C0E0D0E06FEF01308AE118072CF08CE086
S11305800E944C0169E107C0600F8CE00E944C019D
S113059001501109612F8DE00E944C0140E46EE18D
S11305A080E80E94E800CE0102C080E090E0DF9184
S11305B0CF911F910F91FF90EF90DF90CF90BF905C
S11305C0AF909F900895AB980895AB9A0895CF93F8
S11305D0DF93C82FD62F662311F0AA9A01C0AA98D8
S11305E0C7FF02C0AF9A01C0AF98C6FF02C0AE9A5F
S11305F001C0AE98C5FF02C0AD9A01C0AD98C4FF5A
S113060002C0AC9A01C0AC9800C00E94E50282E02E
S11306108A95F1F700C00E94E302C3FF02C0AF9ABB
S113062001C0AF98C2FF02C0AE9A01C0AE98C1FF2C
S113063002C0AD9A01C0AD98C0FF02C0AC9A01C01F
S1130640AC9800C00E94E50292E09A95F1F700C0D0
S11306500E94E302AF9AAE9AAD9AAC9AD11108C047
S1130660C43030F48FE999E10197F1F700C003C079
S113067095ED9A95F1F70000DF91CF91089560E030
S11306800C94E70280580C943F0381E00C943F03E0
S113069061E00C94E702CF93DF93EC018991882306
S11306A019F00E944803FACFDF91CF910895A39ADD
S11306B0A29AA79AA69AA59AA49A0E94E302AA9833
S11306C0AF9AAE9AAD9AAC9A8FE59AEE0197F1F78C
S11306D000C00000AF98AE9800C00E94E50292E00E
S11306E09A95F1F700C00E94E3028FE090E401972D
S11306F0F1F700C000000E94E50292E09A95F1F73C
S113070000C00E94E3028FE891E00197F1F700C076
S113071000000E94E50292E09A95F1F700C00E9461
S1130720E30285ED8A95F1F70000AC9800C00E94C1
S1130730E50292E09A95F1F700C00E94E30285ED8C
S11307408A95F1F70000AC9800C00E94E50292E09F
S11307509A95F1F700C00E94E30282E08A95F1F7CE
S113076000C0AF9A00C00E94E50292E09A95F1F7AA
S113077000C00E94E30285ED8A95F1F7000088E04D
S11307800E943F030E94450386E00E943F038CE0E1
S11307900C943F03EF92FF920F931F93CF93DF9339
S11307A07C01FB01413051F4AB014850510960E038
S11307B070E04F5E5F4F6F4F7F4F0FC0423051F478
S11307C0AB014850510960E070E04A5F5F4F6F4FE2
S11307D07F4F03C040E050E0BA01D7011196CF012A
S11307E08230910588F09D0121503109E901288169
S11307F030E0322F22271C91212B420F531F611D01
S1130800711D02971296ECCFDF01AE7FAE0DBF1DB6
S1130810E0FF0CC08C9190E0982F8827092E000CE3
S1130820AA0BBB0B480F591F6A1F7B1F8B01222782
S11308303327011511052105310539F0662777277E
S1130840400F511F621F731FF1CFCA01809590950D
S1130850DF91CF911F910F91FF90EF900895EFEEEC
S1130860F0E024E02E0FDB013D91BD0131932E1306
S1130870FACFDC01E3EFF0E086E08E0F9D919193D7
S11308808E13FCCF08956932A0F0FC012485283032
S113089081F42585263069F4B696AFEEB0E084E0A5
S11308A08A0F21919D91291304C08A13FACF81E004
S11308B0089580E00895FC016A3298F084858830B8
S11308C081F4958591110DC07E96AFEEB0E084E081
S11308D08A0F31912D91321305C08A13FACF91E01A
S11308E001C090E0892F0895CF93DF93A3EFB0E088
S11308F09C012A5F3F4FF9014081EC014993CE01ED
S11309004D914193C217D307B9F7DF91CF91089561
S1130910CF93DF93EC014E96DE015A964FEE50E0F2
S113092024E0240F3C91FC013193CF01FA01319171
S1130930AF013D932E13F6CF188E198E80E48C8B65
S11309401D8A8E8B40E064E170E0CE010E960E9419
S1130950CA03988F898FDF91CF910895CF93DF9346
S1130960EC010E9474041C8A82E08D8BCE01809677
S1130970DE01569643EF50E026E0240F3C91FC0143
S11309803193CF01FA013191AF013D932E13F6CF8C
S1130990CE018696DE015C964FEE50E024E0240FF3
S11309A03C91FC013193CF01FA013191AF013D93A8
S11309B02E13F6CFBE018AE290E0DF91CF910C9422
S11309C027021F93CF93DF93EC01162F0E94740428
S11309D0CE010E9488041AA29CA1983F18F02DA170
S11309E02F5F2DA3985F9CA3BE01812F90E0DF9120
S11309F0CF911F910C942702DF92EF92FF920F93F5
S1130A001F93CF93DF93EC01F62E172F042FE22EC2
S1130A10D32E0E9474040D3D08F00CED188A8CE16D
S1130A20800F898BCE010E9488048AA18CA38BA19C
S1130A308DA3DAA2EBA21EA288E0800F8FA318A6D2
S1130A4019A6EF2DF12FCE018A96DC012A2F281B3F
S1130A50201718F421912D93F9CF10E0B801605FAD
S1130A607F4F41E0CE014A960E94CA0398A789A706
S1130A70BE01C8018A96DF91CF911F910F91FF901B
S1130A80EF90DF900C94270288E480B981B18C7FC9
S1130A9081B9089584EA86BF06B607FEFDCF08959E
S1130AA084E986BF06B604FCFDCF0895811102C017
S1130AB084E801C084EC86BF06B607FEFDCF83B18F
S1130AC0089583B984E886BF06B607FEFDCF08956E
S1130AD087B3807F87BB83B7856083BF8BE98CBF77
S1130AE089B7826089BF78941092E6020E94570306
S1130AF00E9445038AE690E00E944B0380E40E9432
S1130B0042038BE790E00E944B032FEF83ED90E3C9
S1130B10215080409040E1F700C000000E9445034E
S1130B2088E890E00E944B0380E40E94420380E93D
S1130B3090E00E944B032FEF83ED90E3215080401F
S1130B409040E1F700C000000E9445032FEF81EEC2
S1130B5094E0215080409040E1F700C000000E94E2
S1130B6044050E944A0582EA0E94610580E00E94D1
S1130B70610580E00E9461050E9450050E944A05BB
S1130B8082EA0E94610581E00E94610580E00E9482
S1130B9061050E9450050E944A0580E40E94610597
S1130BA080E00E94610580E00E9461050E9450057A
S1130BB00E944A0580E40E94610582E10E94610569
S1130BC080E00E9461050E9450050E944A0580E46D
S1130BD00E94610581E00E9461058FEF0E9461051A
S1130BE00E9450050E944A0580E40E94610583E149
S1130BF00E9461050E9450050E944A0581E40E94FA
S1130C00610580E00E945605809308020E94500509
S1130C102FEF81EE94E0215080409040E1F700C036
S1130C20000087B18F7387B987E886B980E0E82F21
S1130C30F0E0E15FFD4F10828F5F883CC1F71092B6
S1130C40F90148EC50E060E070E08FE092E00E942F
S1130C50AA1584E690E00E94830184E190E00E945A
S1130C60841066E774E084E10E945F0184E190E00F
S1130C700E94841060E670E084E690E00C942F04F7
S1130C80CF93C82F0E944A0580E40E94610582E147
S1130C900E94610521E030E0C90101C0880FCA95B6
S1130CA0EAF7909105028927809305020E94610565
S1130CB0CF910C945005CF93C82F0E944A0580E42D
S1130CC00E94610582E10E94610521E030E0C901D2
S1130CD001C0880FCA95EAF790910502892B809389
S1130CE005020E946105CF910C945005CF93C82F43
S1130CF00E944A0580E40E94610582E10E94610528
S1130D0021E030E0C90101C0880FCA95EAF7809557
S1130D10909105028923809305020E946105CF9179
S1130D200C9450050E944A0580E40E94610583E109
S1130D300E9461050E9450050E944A0581E40E94B8
S1130D40610580E00E945605809308020E945005C8
S1130D50209108022295922F937334E0939FC0014F
S1130D6011242C7C26952695822B982F9575990F06
S1130D708A7A8695892B80958093080208950F932B
S1130D801F93389A87B1817E87B9369A3699FECFF8
S1130D9084B195B125E0289FB001299F700D1124DD
S1130DA080E090E00E94731120E030EC4FE754E4BF
S1130DB00E94011120E030E040E05FE30E948F10C8
S1130DC020E030E048EC52E40E942A126093DD02F5
S1130DD07093DE028093DF029093E0020EEE12E045
S1130DE021E045E00E94A9121F910F910895CF922E
S1130DF0DF92EF92FF920F931F93399A87B1827E0D
S1130E0087B9369A3699FECF64B175B180E090E027
S1130E100E94731120E030E040EA50E40E942A125C
S1130E2020E030EC4FE754E40E9401112DE73FE34A
S1130E3045E75FE30E948F1021E93EE74BEF5CE357
S1130E400E9401116B017C0129EC3EE84DE05BE35B
S1130E506091DD027091DE028091DF029091E002E8
S1130E600E942A129B01AC0162E27DEF86E89FE3B7
S1130E700E948F109B01AC01C701B6010E940111B1
S1130E806093090270930A0280930B0290930C0200
S1130E900EEE12E021E045E00E94A9121F910F918D
S1130EA0FF90EF90DF90CF900895CF93DF9387B1B9
S1130EB0836087B987B1837E87B9369A3699FECF26
S1130EC0C4B1D5B1BE0180E090E00E94731160937B
S1130ED0D7027093D8028093D9029093DA02CE019C
S1130EE0DF91CF91089597B1907E97B9823061F0E8
S1130EF028F4813081F487B1876008C0833041F0E1
S1130F00843049F43A9A07C087B1866087B903C030
S1130F1087B18560FBCF369A3699FECF84B195B1FF
S1130F200895982F92959F708F702AE0929F800D5C
S1130F30112408956AE00E94971220E1829F900D87
S1130F401124892F08950F931F93CF93DF930E9449
S1130F504A0582EA0E94610582E00E9461050E94BE
S1130F6050050E944A0583EA0E94610581E00E94BF
S1130F7056058093E50281E00E9456058093EC02B9
S1130F8081E00E9456058093ED0281E00E9456059F
S1130F9080930E0281E00E9456058093060281E050
S1130FA00E9456058093F80280E00E9456058093C3
S1130FB00D020E9450050091EC020F771091ED0292
S1130FC01F73D0910E02DF73C091F802CF7180912C
S1130FD0E5028F770E9491078093E502802F0E949B
S1130FE091078093EC02812F0E9491078093ED0278
S1130FF08D2F0E94910780930E028C2F0E949107DF
S11310008093F80280910D020E94910780930D0253
S1131010DF91CF911F910F910895EF92FF920F935B
S11310201F93CF93DF938091E5020E949A07E82EE5
S11310308091EC020E949A07F82E8091ED020E94A2
S11310409A07082F80910E020E949A07182F809108
S1131050F8020E949A07D82F80910D020E949A07E5
S1131060C82F0E944A0582EA0E94610582E00E941C
S113107061058E2D0E9461058F2D0E946105802FD0
S11310800E946105812F0E946105809106020E94E1
S113109061058D2F0E9461058C2F0E946105DF91EF
S11310A0CF911F910F91FF90EF900C9450050E94E7
S11310B045038091ED028A3020F481EA90E00E9499
S11310C04B038091ED024AE06EEE72E090E00E94E4
S11310D007130E944B0385EC90E00E944B03809120
S11310E0EC028A3020F481EA90E00E944B03809164
S11310F0EC024AE06EEE72E090E00E9407130E9458
S11311004B0383EA90E00E944B0380910E028A30E5
S113111020F481EA90E00E944B0380910E024AE0A1
S11311206EEE72E090E00E9407130E944B038AEA7D
S113113090E00E944B038091F8028A3020F481EA07
S113114090E00E944B038091F8024AE06EEE72E058
S113115090E00E9407130E944B038AEA90E00E94E9
S11311604B0380910D024AE06EEE72E090E00E9423
S113117007130C944B030F931F93CF93DF938EE0CD
S11311800E943F03C7E1DBE31FE103E68091040211
S1131190813009F09DC22FEF81EE94E02150804010
S11311A09040E1F700C000000E94570880E40E94CC
S11311B042038CEA90E00E944B038CE20E944203BB
S11311C0809160004AE06EEE72E090E00E940713A6
S11311D00E944B0380EB90E00E944B0380916100DE
S11311E04AE06EEE72E090E00E9407130E944B0307
S11311F080EB90E00E944B03809162004AE06EEE27
S113120072E090E00E9407130E944B0380EB90E091
S11312100E944B03809163004AE06EEE72E090E01E
S11312200E9407130E944B0380E00E944203B1997D
S11312300DC060E670E084E690E00E942F048CE02C
S11312400E943F0310920402109203028091030251
S113125081113DC00E944203B39913C02FEF81EE68
S113126094E0215080409040E1F700C0000080915C
S1131270ED028F5F883118F48093ED0202C0109262
S1131280ED02B09912C02FEF81EE94E0215080401E
S11312909040E1F700C000008091ED02815018F009
S11312A08093ED0202C0C093ED02B29910C0B29BCC
S11312B0FECF2FEF81EE94E0215080409040E1F783
S11312C000C00000809103028F5F8093030280912D
S11312D00302813009F03EC083E00E944203B399C7
S11312E013C02FEF81EE94E0215080409040E1F74D
S11312F000C000008091EC028F5F8C3318F480935F
S1131300EC0202C01092EC02B09912C02FEF81EEF1
S113131094E0215080409040E1F700C000008091AB
S1131320EC02815018F08093EC0202C0D093EC02DE
S1131330B29910C0B29BFECF2FEF81EE94E0215002
S113134080409040E1F700C00000809103028F5F6D
S11313508093030280910302823009F03EC08BE047
S11313600E944203B39913C02FEF81EE94E0215001
S113137080409040E1F700C0000080910E028F5F32
S1131380803218F480930E0202C010920E02B099BB
S113139012C02FEF81EE94E0215080409040E1F79D
S11313A000C0000080910E02815018F080930E025C
S11313B002C010930E02B29910C0B29BFECF2FEF61
S11313C081EE94E0215080409040E1F700C000009D
S11313D0809103028F5F8093030280910302833024
S11313E0E1F58EE00E944203B39913C02FEF81EE22
S11313F094E0215080409040E1F700C000008091CB
S1131400F8028F5F8D3018F48093F80202C01092B6
S1131410F802B09910C02FEF81EE94E02150804083
S11314209040E1F700C000008091F802815008F478
S11314308CE08093F802B29910C0B29BFECF2FEFDC
S113144081EE94E0215080409040E1F700C000001C
S1131450809103028F5F80930302809103028430A2
S113146009F03EC081E10E944203B39913C02FEFFB
S113147081EE94E0215080409040E1F700C00000EC
S113148080910D028F5F843618F480930D0202C0A0
S113149010920D02B09912C02FEF81EE94E021500A
S11314A080409040E1F700C0000080910D0281501F
S11314B018F080930D0202C000930D02B29910C07F
S11314C0B29BFECF2FEF81EE94E0215080409040FC
S11314D0E1F700C00000809103028F5F8093030254
S11314E0809103028530C1F58DE20E9442038EE0B3
S11314F00E943F03B3990EC02FEF81EE94E0215078
S113150080409040E1F700C00000809160008F5F50
S113151080936000B0990EC02FEF81EE94E02150CB
S113152080409040E1F700C000008091600081504D
S113153080936000B29910C0B29BFECF2FEF81EE72
S113154094E0215080409040E1F700C00000809179
S113155003028F5F80930302809103028630A9F512
S113156089E40E944203B3990EC02FEF81EE94E008
S1131570215080409040E1F700C00000809161005C
S11315808F5F80936100B0990EC02FEF81EE94E0DD
S1131590215080409040E1F700C00000809161003C
S11315A0815080936100B29910C0B29BFECF2FEF9F
S11315B081EE94E0215080409040E1F700C00000AB
S11315C0809103028F5F809303028091030287302E
S11315D0A9F58CE40E944203B3990EC02FEF81EE6B
S11315E094E0215080409040E1F700C000008091D9
S11315F062008F5F80936200B0990EC02FEF81EE7E
S113160094E0215080409040E1F700C000008091B8
S11316106200815080936200B29910C0B29BFECFE9
S11316202FEF81EE94E0215080409040E1F700C01C
S11316300000809103028F5F809303028091030274
S11316408830A9F580E50E944203B3990EC02FEFBC
S113165081EE94E0215080409040E1F700C000000A
S1131660809163008F5F80936300B0990EC02FEF69
S113167081EE94E0215080409040E1F700C00000EA
S113168080916300815080936300B29910C0B29B33
S1131690FECF2FEF81EE94E0215080409040E1F79F
S11316A000C00000809103028F5F80930302809149
S11316B00302893009F06ACD0E940D088CE00E9473
S11316C03F030E94450310920402109203025ECD70
S11316D0DF91CF911F910F9108954F925F926F9276
S11316E07F928F929F92AF92BF92CF92DF92EF92AE
S11316F0FF920F931F93CF93DF930E949206EFE024
S1131700F2E001900020E9F73197EF50F2408E2E7D
S11317101092F901D3E082E0D82EC1E097E0C92EFF
S113172026E0B22E35E0A32E44E0942E8091F901F8
S1131730881508F0F9C2282F30E0F901E15FFD4F68
S11317409081923771F51092E7021092E80210929C
S1131750E9021092EA021092F40110920202E1816D
S11317608E2F90E0FC01F197E730F10508F0B3C04B
S1131770E65DFF4F0C94A312C0930202ACC0D0925A
S11317800202A9C0D0930202A6C090920202A3C092
S1131790A0920202A0C0B09202029DC0C0920202B6
S11317A09AC09436A9F49091F6019F5F9093F60144
S11317B0C901805F9D4F0E94C9122091080230E048
S11317C002C0359527958A95E2F720FF84C07EC034
S11317D0913609F080C09091F6019F5F9093F601D5
S11317E090E0A92FB0E0AF51BD4F1C929F5F9430A1
S11317F0C1F71092F7012181213319F4C093070234
S11318000EC0223319F4D092070209C0233319F40D
S1131810D093070204C0243311F4909307029091EB
S1131820F7018E5F981BE92FE80FA82FB0E0A15FA6
S1131830BD4F2C9111E0180F2D3231F0F0E0EF5133
S1131840FD4F2083812FEFCF8093F801E093F701C0
S113185081EE92E00E94C9129093010280930002EB
S1131860812F312F3195E32FE80FA82FB0E0A15F2E
S1131870BD4F9C9121E0280F9D3231F0F0E0EF51F3
S1131880FD4F9083822FEFCF8093F801E093F7010F
S113189081EE92E00E94C9129093FF018093FE01B1
S11318A0809107020E947307209100023091010287
S11318B08217930780F0809107020E94730720919A
S11318C0FE013091FF012817390728F08091F501B6
S11318D08F5F8093F5018091F901E82FF0E0E15FDB
S11318E0FD4F9081943709F057C09091F6019F5FA6
S11318F09093F60190E0E92FF0E0EF51FD4F108254
S11319009F5F9430C1F78F5F282F2195E22FE80F56
S1131910A82FB0E0A15FBD4F9C9111E0180F9D323C
S113192031F0F0E0EF51FD4F9083812FEFCF8093A2
S1131930F801E093F70181EE92E00E94C9127C0164
S11319409093010280930002E0E0812F8E0FA82F74
S1131950B0E0A15FBD4F9C9121E02E0F9D3231F08C
S1131960F0E0EF51FD4F9083E22FEFCF8093F80129
S1131970E093F70181EE92E00E94C9128C019093EA
S1131980FF018093FE014090DD025090DE026090E2
S1131990DF027090E002B5C09C3609F057C0909108
S11319A0F6019F5F9093F60190E0E92FF0E0EF518C
S11319B0FD4F10829F5F9430C1F78F5F282F2195D0
S11319C0E22FE80FA82FB0E0A15FBD4F9C9111E07A
S11319D0180F9D3231F0F0E0EF51FD4F9083812FCD
S11319E0EFCF8093F801E093F70181EE92E00E943B
S11319F0C9127C019093010280930002E0E0812FE0
S1131A008E0FA82FB0E0A15FBD4F9C9121E02E0F57
S1131A109D3231F0F0E0EF51FD4F9083E22FEFCF94
S1131A208093F801E093F70181EE92E00E94C912DD
S1131A308C019093FF018093FE014090D702509057
S1131A40D8026090D9027090DA025BC0983609F02F
S1131A5074C09091F6019F5F9093F60190E0E92F96
S1131A60F0E0EF51FD4F10829F5F9430C1F78F5F1C
S1131A70282F2195E22FE80FA82FB0E0A15FBD4FDA
S1131A809C9111E0180F9D3231F0F0E0EF51FD4FC1
S1131A909083812FEFCF8093F801E093F70181EEDB
S1131AA092E00E94C9127C0190930102809300028B
S1131AB0812F312F3195E32FE80FA82FB0E0A15FDC
S1131AC0BD4F9C9121E0280F9D3231F0F0E0EF51A1
S1131AD0FD4F9083822FEFCF8093F801E093F701BD
S1131AE081EE92E00E94C9128C019093FF018093D1
S1131AF0FE014090090250900A0260900B0270901F
S1131B000C02B70180E090E00E9473119B01AC01CC
S1131B10C301B2010E94251287FD00C1B80180E013
S1131B2090E00E9473119B01AC01C301B2010E94B9
S1131B30FC1018160CF4F2C0A8C0933609F0ABC020
S1131B409091F6019F5F9093F60190E0E92FF0E009
S1131B50EF51FD4F10829F5F9430C1F78F5F282FA4
S1131B602195E22FE80FA82FB0E0A15FBD4F9C9113
S1131B7011E0180F9D3231F0F0E0EF51FD4F9083EA
S1131B80812FEFCF8093F801E093F70181EE92E08B
S1131B900E94C912082F8093FD01912F212F2195B6
S1131BA0E22FE90FA92FB0E0A15FBD4F8C9111E0A6
S1131BB0190F8D3231F0F0E0EF51FD4F8083912FFA
S1131BC0EFCF9093F801E093F70181EE92E00E9449
S1131BD0C912F82E8093FC01912F212F2195E22F19
S1131BE0E90FA92FB0E0A15FBD4F8C9111E0190F4F
S1131BF08D3231F0F0E0EF51FD4F8083912FEFCF24
S1131C009093F801E093F70181EE92E00E94C912EB
S1131C10E82E8093FB01912F312F3195E32FE90FAB
S1131C20A92FB0E0A15FBD4F8C9121E0290F8D3227
S1131C3031F0F0E0EF51FD4F8083922FEFCF90937E
S1131C40F801E093F70181EE92E00E94C9128093BB
S1131C50FA012091ED02201309C09091EC029E112B
S1131C6005C09091EB0294609093EB022F1109C090
S1131C709091EC02981305C08091EB028B7F8093C6
S1131C80EB028091EB0282FF49C08091F5018F5FE6
S1131C908093F50143C0963731F58181813369F032
S1131CA028F4803379F41092F4010CC0823341F0AB
S1131CB0833341F4D093F40105C0C093F40102C00E
S1131CC0D092F4019091F6018091F501981306C029
S1131CD0E091F401F0E0E951FD4FC0831092F60168
S1131CE01092F5011BC09536C9F48091E70281304A
S1131CF061F08091E802813041F08091E902813005
S1131D0021F08091EA02813029F4809102020E943C
S1131D105B0604C0809102020E9476068091F9015C
S1131D208F5F8093F90102CDDF91CF911F910F91C5
S1131D30FF90EF90DF90CF90BF90AF909F908F90E7
S1131D407F906F905F904F9008950E946805D1E056
S1131D5080910402813011F40E94BB088091040236
S1131D60811117C18091E602823358F18091EB0210
S1131D7080FD27C01092E6020E94A3070E94570824
S1131D8080E40E94420382EB90E00E944B030E9495
S1131D90BF068EEE92E00E944B0388EB90E00E9417
S1131DA04B038BEB90E00E944B030E94F7068EEEF0
S1131DB092E00E944B0380EC90E00E944B030E944F
S1131DC055078091E6028E3108F4A7C08091EB029A
S1131DD080FFA3C01092E6020E94450381E00E94A6
S1131DE07307BC0180E090E00E94731120E030E0B2
S1131DF040EA50E40E942A1220E030EC4FE754E419
S1131E000E9401110EEE12E021E043E00E94A912AB
S1131E1083EC90E00E944B03C8010E944B0387ECC3
S1131E2090E00E944B0382E00E947307BC0180E0B3
S1131E3090E00E94731120E030E040EA50E40E94F8
S1131E402A1220E030EC4FE754E40E94011121E013
S1131E5043E00E94A91289EC90E00E944B03C80160
S1131E600E944B0387EC90E00E944B0383E00E94A6
S1131E707307BC0180E090E00E94731120E030E021
S1131E8040EA50E40E942A1220E030EC4FE754E488
S1131E900E94011121E043E00E94A9128EEC90E01F
S1131EA00E944B03C8010E944B0387EC90E00E9400
S1131EB04B0384E00E947307BC0180E090E00E9421
S1131EC0731120E030E040EA50E40E942A1220E03E
S1131ED030EC4FE754E40E94011121E043E00E94FA
S1131EE0A91280E40E94420383ED90E00E944B0318
S1131EF0C8010E944B0387EC90E00E944B030E94B0
S1131F0055074AE0B8010E9407138C0187ED90E061
S1131F100E944B03C8010E944B03B2990BC02FEFE0
S1131F2081EE94E0215080409040E1F700C0000031
S1131F30D0930402B1990BC02FEF81EE94E02150AD
S1131F4080409040E1F700C0000010920402B39971
S1131F500EC08091EB0281608093EB022FEF81EE43
S1131F6094E0215080409040E1F700C00000B19916
S1131F700EC08091EB028E7F8093EB022FEF81EEF7
S1131F8094E0215080409040E1F700C000000E949E
S1131F906D0B69EF70E08AEF90E00E946702909306
S1131FA0DC028093DB02009709F4D2CE682F89EF1C
S1131FB090E00E944304C82F6091DB0289EF90E017
S1131FC0CC2319F00E94AE04C3CE0E945B04882384
S1131FD009F4BECE80911001813061F480911B011F
S1131FE0883009F06FC06091DB0289EF90E00E94B5
S1131FF0E104AECE813109F065C0EFE0F2E0119268
S113200022E0E73DF207D9F763E271E08FE092E066
S11320100E94E71244E050E06FE072E082EE90E04C
S11320200E94EE12892B71F463E172E08FE092E07A
S11320300E94E71248EC50E060E070E08FE092E02C
S11320400E94BA1543E050E06FE072E087EE90E042
S11320500E94EE12892BB1F562E172E08FE092E00A
S11320600E94E712E0910F024E2F50E0FA01F09720
S1132070E830F105A8F4EF5CFF4F0C94A31280E064
S11320800DC081E00BC082E009C083E007C084E09A
S113209005C085E003C086E001C087E00E944006D9
S11320A0EC2FF0E0E15FFD4F1082CF5FC83CC1F739
S11320B01092F90148EC50E060E070E08FE092E0AB
S11320C00E94AA1568EC70E08FE092E00E94FC1276
S11320D020EB34E0482F6FE072E089EF90E00E943B
S11320E0FC0436CE1F920F920FB60F9211248F93D9
S11320F012BE8091E6028F5F8093E6028F910F906B
S11321000FBE0F901F901895009741F0EFE7F7E08E
S11321103197F1F700C000000197F6CF08955058A9
S1132120BB27AA270E94A7100C94EB110E94DD1173
S113213038F00E94E41120F039F49F3F19F426F49A
S11321400C94DA110EF4E095E7FB0C94D411E92F0A
S11321500E94FC1158F3BA176207730784079507A6
S113216020F079F4A6F50C941E120EF4E0950B2ED3
S1132170BA2FA02D0B01B90190010C01CA01A001D5
S11321801124FF27591B99F0593F50F4503E68F130
S11321901A16F040A22F232F342F4427585FF3CF71
S11321A0469537952795A795F0405395C9F77EF442
S11321B01F16BA0B620B730B840BBAF09150A1F08B
S11321C0FF0FBB1F661F771F881FC2F70EC0BA0F11
S11321D0621F731F841F48F4879577956795B79599
S11321E0F7959E3F08F0B0CF9395880F08F0992794
S11321F0EE0F9795879508950E94B01108F481E039
S113220008950E9415110C94EB110E94E41158F0EA
S11322100E94DD1140F029F45F3F29F00C94D411A1
S113222051110C941F120C94DA110E94FC1168F3E2
S11322309923B1F3552391F3951B550BBB27AA277B
S113224062177307840738F09F5F5F4F220F331FB5
S1132250441FAA1FA9F335D00E2E3AF0E0E832D07D
S113226091505040E695001CCAF72BD0FE2F29D080
S1132270660F771F881FBB1F261737074807AB0752
S1132280B0E809F0BB0B802DBF01FF2793585F4FC7
S11322903AF09E3F510578F00C94D4110C941F121F
S11322A05F3FE4F3983ED4F3869577956795B795A9
S11322B0F7959F5FC9F7880F911D9695879597F9B4
S11322C00895E1E0660F771F881FBB1F621773072D
S11322D08407BA0720F0621B730B840BBA0BEE1F42
S11322E088F7E0950895E89409C097FB3EF490952B
S11322F08095709561957F4F8F4F9F4F9923A9F0DB
S1132300F92F96E9BB279395F69587957795679569
S1132310B795F111F8CFFAF4BB0F11F460FF1BC0AD
S11323206F5F7F4F8F4F9F4F16C0882311F096E940
S113233011C0772321F09EE8872F762F05C06623EE
S113234071F096E8862F70E060E02AF09A95660FA7
S1132350771F881FDAF7880F9695879597F9089560
S1132360990F0008550FAA0BE0E8FEEF16161706A2
S1132370E807F907C0F012161306E407F50798F00A
S1132380621B730B840B950B39F40A2661F0232B23
S1132390242B252B21F408950A2609F4A140A6959F
S11323A08FEF811D811D089597F99F6780E870E084
S11323B060E008959FEF80EC089500240A941616B7
S11323C0170618060906089500240A94121613061F
S11323D0140605060895092E0394000C11F48823AD
S11323E052F0BB0F40F4BF2B11F460FF04C06F5FC9
S11323F07F4F8F4F9F4F089557FD9058440F551F9F
S113240059F05F3F71F04795880F97FB991F61F072
S11324109F3F79F087950895121613061406551FE9
S1132420F2CF4695F1DF08C0161617061806991F55
S1132430F1CF86957105610508940895E894BB274A
S113244066277727CB0197F908950E94B01108F405
S11324508FEF08950E943D120C94EB110E94DD1140
S113246038F00E94E41120F0952311F00C94D4115B
S11324700C94DA1111240C941F120E94FC1170F3B5
S1132480959FC1F3950F50E0551F629FF001729F15
S1132490BB27F00DB11D639FAA27F00DB11DAA1F24
S11324A0649F6627B00DA11D661F829F2227B00D71
S11324B0A11D621F739FB00DA11D621F839FA00DFC
S11324C0611D221F749F3327A00D611D231F849F4C
S11324D0600D211D822F762F6A2F11249F575040A3
S11324E09AF0F1F088234AF0EE0FFF1FBB1F661F1E
S11324F0771F881F91505040A9F79E3F510580F0E7
S11325000C94D4110C941F125F3FE4F3983ED4F35F
S1132510869577956795B795F795E7959F5FC1F78A
S1132520FE2B880F911D9695879597F90895991B11
S113253079E004C0991F961708F0961B881F7A95B6
S1132540C9F780950895EE0FFF1F0590F491E02DD3
S11325500994EF920F931F93CF93DF93E80147FD04
S113256002C034E001C034E1E42F440FFF0BF7FF55
S113257003C0F195E195F109E32E022F2E2FAE0150
S11325800E943413CE01DF91CF911F910F91EF90F0
S11325900895FC0188279927E89421912032E9F3D2
S11325A0293010F02E30C8F32B3241F02D3239F49B
S11325B0689404C00E941213820F911D219120532C
S11325C02A30C0F31EF4909581959F4F0895FB0126
S11325D0DC0101900D920020E1F70895FB01DC017C
S11325E04150504030F08D910190801919F4002031
S11325F0B9F7881B990B0895FC0161507040019054
S11326000110D8F7809590958E0F9F1F0895BB27D2
S11326104A3031F4992322F4BDE2909581959F4F7D
S11326200C941B137AE0979F902D879F802D910D1A
S113263011240895BB27FB015527AA27880F991F4A
S1132640AA1FA41710F0A41B83955051B9F7A05DDD
S1132650AA3308F0A95DA193009779F7B111B1935A
S11326601192CB010C949A154F925F926F927F92C4
S11326709F92AF92BF92CF92DF92EF92FF920F930D
S11326801F93CF93DF93CDB7DEB729970FB6F89496
S1132690DEBF0FBECDBF6A01122FB02E2BE3201771
S11326A020F0FF24F394F00E02C0BCE3FB2E0F2DA8
S11326B027E0AE014F5F5F4F0E94C214AC018981D5
S11326C0982F9970913031F0E1FC06C0E0FE06C00D
S11326D090E205C09DE203C09BE201C090E0EE2DB4
S11326E0E07183FF3CC0911102C083E001C084E02B
S11326F0811718F4212F281B01C020E0E1110BC021
S1132700F601822F30E2882319F031938150FBCFF8
S1132710C20ED11C20E0992329F0D6019C93F60126
S113272031966F01C6010396E2FE0AC03EE4D6016B
S11327303C9341E411964C93119712963C9306C036
S11327403EE6F601308341E641833283FC01322FB9
S113275040E2332309F442C041933150FACF82FF5F
S113276044C0911102C083E001C084E0811718F4D1
S1132770212F281B01C020E0E1110BC0F601822F9C
S113278030E2882319F031938150FBCFC20ED11C63
S113279020E0992329F0D6019C93F60131966F012C
S11327A0C6010396E2FE0BC039E4D6013C933EE435
S11327B011963C93119736E412963C9307C039E680
S11327C0F60130833EE6318336E63283FC01322F54
S11327D040E2332319F041933150FBCFFC01E20F67
S11327E0F11D10828EEF9FEFB7C0F1E0911101C08F
S11327F0F0E06F2F70E01416150624F49A012F5F91
S11328003F4F02C021E030E0260F371FBB2029F0E4
S11328106B2D70E06F5F7F4F02C060E070E0260FA9
S1132820371F612F70E0261737071CF4121B212F66
S113283001C020E03E2D387159F4D601322F60E2F8
S1132840332319F06D933150FBCFC20ED11C20E01D
S1132850FF2331F0D6019C93B6016F5F7F4F6B016C
S1132860E1110BC0F601922F30E3992319F0319353
S11328709150FBCFC20ED11C20E09F2D940F3A81C2
S1132880782F7071A72E84FF03C0313309F491505F
S1132890191624F4993018F098E001C091E0E42F5F
S11328A0852F57FF02C0E0E080E06E2F782FE0E034
S11328B0F0E0AEE29A2E3A01691A71082A01461A2A
S11328C0570A0B2D10E01195019511096F3F8FEFF9
S11328D0780729F4D6019C92C60101966C0146172B
S11328E0570784F0661677066CF47F01E40CF51C38
S11328F0A1E0B0E0AC0FBD1FEA0EFB1ED70111969C
S1132900BC9002C090E3B92E615071093196C601A2
S113291001967C016017710724F0D601BC926C010A
S1132920D5CF6417750741F4363320F4353321F4D9
S1132930A11002C081E3B82EF601B082F701822F04
S113294090E2882319F091938150FBCFF701E20FB5
S1132950F11D108280E090E029960FB6F894DEBF56
S11329600FBECDBFDF91CF911F910F91FF90EF90DC
S1132970DF90CF90BF90AF909F907F906F905F90CB
S11329804F900895283008F027E03327DA01990F93
S1132990311D87FD916000966105710539F432603F
S11329A02E5F3D9330E32A95E1F708959F3F30F081
S11329B080387105610509F03C5F3C5F3D939130BF
S11329C008F08068911DDF93CF931F930F93FF92BC
S11329D0EF92192F987F9695E92F96959695E90F82
S11329E0FF27E453FF4F99273327EE24FF24A70141
S11329F0E70105900894079428F4360FE71EF81EA3
S1132A00491F511D660F771F881F991F0694A1F750
S1132A100590079428F4E70EF81E491F561FC11DA0
S1132A20770F881F991F661F0694A1F705900794D6
S1132A3028F4F80E491F561FC71FD11D880F991F70
S1132A40661F771F0694A1F70590079420F4490F99
S1132A50561FC71FD81F990F661F771F881F06941C
S1132A60A9F784911095177041F0D695C79557959D
S1132A704795F794E7941A95C1F7E2E7F0E0689474
S1132A801590159135916591959105907FE2739517
S1132A90E118F10A430B560BC90BD009C0F7E10C3E
S1132AA0F11E431F561FC91FD01D7EF4703311F44D
S1132AB08A95E6CFE894015030F0080F0AF4002715
S1132AC0021708F4202F2395022F7A3328F079E394
S1132AD07D932A95E9F710C07D932A9589F606948B
S1132AE097956795379517951794E118F10A430B55
S1132AF0560BC90BD00998F023957E9173957A33C0
S1132B0008F070E37C932013B8F77E9170617D9395
S1132B1030F0839571E37D9370E32A95E1F71124F6
S1132B20EF90FF900F911F91CF91DF91992787FD2F
S1132B3090950895DC01FC01672F71917723E1F7EB
S1132B40329704C07C916D9370836291AE17BF0776
S1132B50C8F30895DC01CB01FC01E199FECF06C066
S1132B60FFBBEEBBE09A31960DB20D92415050403E
S1132B70B8F70895DC01A40FB51F4150504048F048
S1132B80CB01840F951F2E910E94CB1541505040CC
S1132B90D0F70895262FE199FECF9FBB8EBBE09A14
S1132BA001970DB2021631F02DBB0FB6F894E29ADC
S10D2BB0E19A0FBE0895F894FFCFD8
S1132BBAC0A8000A545558100024504C4320464FCC
S1132BCA5220444F4D4F544943530056312E305FDF
S1132BDA31305F3230313500417574686F723A00B2
S1132BEA437269737469616E20536361726C6174B0
S1132BFA00300020446174653A002F0049503A00BD
S1132C0A2E0054656D703A0043200048756D3A00F1
S1132C1A25200041313A0056002041323A00204131
S1132C2A333A0041343A0020204C756D696E613A9A
S10F2C3A2000636F6E6600636D64000090
S9030000FC
